:02000004080AE8
:1000000000000A08A86D0A080000060006000501A5
:080010000402E80500000000F5
:04001800E8150A08D5
:10001C0009480A4908B5884205D0094A824202D0EB
:10002C00121A01F053FA0748074A0021121A01F07C
:10003C0058FA064808BD00BF00000020A46C0A084E
:10004C00DC000020DC000020640600206406002098
:10005C0070B500F0D3FC074B074C1E46E41AA408FD
:10006C000025A54204D056F8253098470135F8E70D
:10007C0070BD00BF706C0A08A06C0A0800F0CCB808
:10008C0008B500F0EDF8BDE8084000F079BC00F0D0
:10009C009BBA0078B0FA80F04009704701230370D6
:1000AC00704700002DE9F04F074685B00C46154609
:1000BC0000F0CCFD3B46284A012100F0BDFB27494E
:1000CC00384601F079FA064688B900F0BFFD24499C
:1000DC0000F089FB0623ADF80830224B40F22D12BC
:1000EC00CDF80A3002AB009331461F4B1CE0DFF811
:1000FC007CB000264FF00C084FFA86FA08FB0AF287
:10010C005BF802100BEB020949B1384601F054FAC6
:10011C00013601460028EFD1BAF1FF3F07D1002389
:10012C00194600934FF4CA722846A04710E000907D
:10013C00D9F80430C8222846A047D9F808402046F0
:10014C0001F044FA0E9B02461B6821460E98984714
:10015C0005B0BDE8F08F00BF524C0A08634C0A088A
:10016C006A4C0A087B4C0A08934C0A0800000020D1
:10017C002DE9F041244900F0EFFA002840D000F0BE
:10018C00C5F88046214F224E224D00F0BFF842F2B6
:10019C000F73C8EB0000984220D878203C8800F000
:1001AC007BFE00F18701204600F099FF782034880F
:1001BC0000F072FE00F18701204600F090FF7820DD
:1001CC002C8800F069FE00F18701204600F087FFC3
:1001DC00642000F061FE00F081FBD6E70B4B0021A0
:1001EC00188800F07CFF0A4B0021188800F077FF7C
:1001FC00084B0021188800F072FF0120BDE8F08147
:10020C004FF0FF30BDE8F0819E4C0A08E000002062
:10021C006C0000207000002008B50B4B01211888E1
:10022C0000F04CFF094B0121188800F047FF084BE8
:10023C000121188800F042FFBDE80840054A064934
:10024C00064800F01DBC00BFE00000206C00002040
:10025C0070000020A14C0A087D010A08610A0A08F6
:10026C007047000008B500F009F8BDE8084000210F
:10027C00014800F015B900BFB1000A0808B5024BDF
:10028C001B681B68019308BDB001060808B5024B3A
:10029C001B685B68019308BDB001060808B5024BEA
:1002AC001B689B68019308BDB001060808B5024B9A
:1002BC001B68DB68019308BDB001060808B5024B4A
:1002CC001B689B6A019308BDB001060808B5024B78
:1002DC001B689B6F019308BDB001060808B5024B63
:1002EC001B68DB69019308BDB401060808B5024B15
:1002FC001B681B6A019308BDB401060808B5024BC4
:10030C001B685B68019308BD9C01060808B5024B8D
:10031C001B685B69019308BD9C01060808B5024B7C
:10032C001B685B6C019308BDD001060808B5024B35
:10033C001B689B6C019308BDD001060808B5024BE5
:10034C001B689B69019308BDC401060808B5024BE4
:10035C001B685B6A019308BDC401060808B5024B13
:10036C001B689B6A019308BDC401060808B5024BC3
:10037C001B68DB6A019308BDC401060808B5024B73
:10038C001B681B6B019308BDC401060808B5024B22
:10039C001B685B6B019308BDC401060808B5024BD2
:1003AC001B689B6B019308BDC401060808B5024B82
:1003BC001B681B6C019308BDC401060808B5024BF1
:1003CC001B681B6E019308BDAC01060808B5024BF7
:1003DC001B685B6E019308BDAC01060808B5024BA7
:1003EC001B689B6E019308BDAC01060808B5024B57
:1003FC001B68DB6E019308BDAC01060808B5024B07
:10040C001B681B6F019308BDAC01060808B5024BB5
:10041C001B685B6F019308BDAC01060808B5034B64
:10042C001B68D3F88030019308BD0000AC010608AE
:10043C0008B5024B1B681B68019308BDD801060860
:10044C0008B5024B1B681B69019308BDD80106084F
:10045C0008B5024B1B685B69019308BDD8010608FF
:10046C0008B5024B1B689B69019308BDD8010608AF
:10047C0008B5024B1B68DB69019308BDD80106085F
:10048C0008B5024B1B681B6A019308BDD80106080E
:10049C0008B5024B1B689B6C019308BDC001060894
:1004AC0008B5024B1B685B6E019308BDC0010608C2
:1004BC0008B5024B1B685B68019308BDA4010608D4
:1004CC0008B5024B1B685B69019308BDA4010608C3
:1004DC0008B5034B1B68D3F89030019308BD00009E
:1004EC00A401060808B5034B1B68D3F89C30019394
:1004FC0008BD0000A401060808B5024B1B685B6828
:10050C00019308BDC801060808B5024B1B689B681F
:10051C00019308BDC801060808B5024B1B68DB68CF
:10052C00019308BDC801060808B5024B1B681B697E
:10053C00019308BDC801060808B5024B1B685B692E
:10054C00019308BDC801060808B5024B1B689B69DE
:10055C00019308BDC801060808B5024B1B68DB698E
:10056C00019308BDC801060808B5024B1B681B6A3D
:10057C00019308BDC801060808B5024B1B681B6B2C
:10058C00019308BDC801060808B5024B1B685B6BDC
:10059C00019308BDC801060808B5024B1B685B68CF
:1005AC00019308BDCC01060808B5024B1B68DB6B38
:1005BC00019308BDCC01060808B5024B1B681B68EB
:1005CC00019308BDA001060808B5024B1B685B68C7
:1005DC00019308BDA001060808B5024B1B689B6877
:1005EC00019308BDA001060808B5024B1B685B6AA5
:1005FC00019308BDA001060870B504460E460025FF
:10060C0040F8085FFFF78AFE30462670FFF766FE5B
:10061C006560204670BD0078FFF768BE10B50446D3
:10062C00006818B1FFF7D0FF0023236010BD10B590
:10063C000446FFF7F3FF204610BD00004FF6FF7392
:10064C0010B5084C00202060A080A071208163812F
:10065C00FFF72EFF2046BDE81040034A034900F087
:10066C00BDBD00BFE4000020DC0000203B060A08F2
:10067C0010B504460068FFF7A7FF204610BD10B563
:10068C000446006808B1FFF79FFF00232360A360B6
:10069C00636010BD38B504460D4600680131FFF7A4
:1006AC009BFF10B184E82100012038BD10B5036810
:1006BC00044613B143688B4207D22046FFF7EAFF8A
:1006CC0020B1A3680BB922681370012010BD70B55E
:1006DC000E46114604461546FFF7E8FF18B92046AA
:1006EC00FFF7CDFF09E02A463146A560206800F0EF
:1006FC00EDFE2268A3680021D154204670BD38B5A8
:10070C000023044603604360836003730D4639B1D4
:10071C00084600F05BFF294602462046FFF7D7FF4C
:10072C00204638BD884210B50B46044607D00968F0
:10073C0019B19A68FFF7CBFF01E0FFF7A0FF204645
:10074C0010BD10B50446002303604360836003733F
:10075C00FFF7E8FF204610BD08B582680B4612B9BA
:10076C0019B9012008BD11B90368187802E00068B6
:10077C0000F022FFB0FA80F0400908BDF8B506463B
:10078C000D468F180024BD420CD0336815F8011BA0
:10079C009B6830469847002801DB0444F3E7002CA3
:1007AC0008BF04462046F8BD70B505460C46084601
:1007BC0049B100F00BFF2B68024621462846BDE8E4
:1007CC007040DB68184770BD03689B68184738B5E4
:1007DC000D210546FFF7F8FF0A2104462846FFF7CE
:1007EC00F3FF204438BD38B50546FFF7DDFF04465E
:1007FC002846FFF7ECFF204438BD012A98BF0A2297
:10080C0030B50B468BB000218DF824100DF123046C
:10081C00B3FBF2F505FB1233DBB2092B94BF30337B
:10082C003733DBB2214604F801392B46002DEFD1CA
:10083C00FFF7BAFF0BB030BD0CB42DE9F04387B015
:10084C0000AF07F1380454F8049B05460E462346C6
:10085C004A461421381D3C60FFF7C6FE132805D804
:10086C00391D2846FFF7A0FF044613E000F10803EA
:10087C0023F00703E846ADEB030D411C23464A4623
:10088C0068463C60FFF7B0FE69462846FFF78CFFD0
:10089C000446C5461EB12846FFF799FF044420467E
:1008AC001C37BD46BDE8F04302B0704700231A4622
:1008BC0019464068FFF740BE014A024B1A60704768
:1008CC00706A0A08F0000020024B1A68024B1A608A
:1008DC00704700BF74000020F40000200021FFF7D7
:1008EC00EFBD10B58368044613B103220146984747
:1008FC00204610BD10B50446FFF7F3FF204610BD8F
:10090C00034800238360034A034900F067BC00BF1F
:10091C00F8000020DC00002001090A0808B5144B7F
:10092C0033B100F093F903681B699847002816DC73
:10093C00104B33B100F048FA03681B699847002844
:10094C0010DC0D4B0BB1AFF300800C4B7BB100F006
:10095C00B9F903681B699847002806DC08BDAFF39A
:10096C000080E5E7AFF30080EBE7AFF3008008BD54
:10097C00000000000000000000000000000000006B
:10098C0008B5FFF7CBFFFFF7C1FC014B186008BDA2
:10099C008C0500200248034A0349121A00F096BD48
:1009AC000040024004400240A06C0A0807B5002336
:1009BC0000931A466FF07701FFF794FD03B05DF8D2
:1009CC0004FB000007B543880A2B08D0502B09D133
:1009DC00094B1B683BB103B05DF804EB1847FFF7FC
:1009EC00E5FF06E0002300931A466FF07701FFF74E
:1009FC0079FD03B05DF804FB0801002038B5104CFC
:100A0C00104D2368AB42104B0CBF012200221A7010
:100A1C0002D0FFF7BFFF2560FFF770FC044600F023
:100A2C0069FD0A4B13B12046AFF300800021074843
:100A3C00FFF7BAFDBDE8384000210548FFF748BD77
:100A4C00004002401E1C279A0C01002000000000F0
:100A5C00D1090A0810B588B004466846FFF74FFE66
:100A6C00694604A8FFF76DFE04A8A047044604A835
:100A7C00FFF7FEFD6846FFF7FBFD204608B010BDF2
:100A8C00F0B507460E46154685B0102422460021C7
:100A9C00684600F026FD002269461046ADF800407D
:100AAC00029703960195FFF777FD05B0F0BD7047EF
:100ABC0010B50446182100F09FFB204610BDF8B578
:100ACC000F4600F10806051D002416F8011D0A2228
:100ADC003846FFF792FEAE42044407D0002CF4D007
:100AEC002E213846FFF770FE0444EEE72046F8BD91
:100AFC0010B50446044B112240F8043B002100F0D1
:100B0C00F0FC204610BD00BF0C6B0A080346074AD8
:100B1C0010B543F8042B01F1100251F8044B91422B
:100B2C0043F8044BF9D10A781A7010BD0C6B0A0803
:100B3C00024A416002600422027570470C6B0A087D
:100B4C0010B59DF8084044EA032343EA024242EA06
:100B5C00016104234160037510BD000037B5044DDD
:100B6C0005609DF818500095FFF7EAFF03B030BD03
:100B7C000C6B0A0841747047704708B50021007C63
:100B8C00FFF76EFC30EA200028BF4FF0FF3008BDA5
:100B9C0008B50121007CFFF763FC30EA200028BF78
:100BAC004FF0FF3008BD08B5007CFFF751FC20EA80
:100BBC00E07008BD08B5007CFFF742FC20EAE0704D
:100BCC0008BD007CFFF75CBC10B50446142100F096
:100BDC0013FB204610BD38B50446007C0D46FFF7CC
:100BEC0037FC002801DC607C28B12946207CFFF70B
:100BFC003FFC20EAE07038BD10B50446002363606A
:100C0C004FF47A73A360054B0846236001232174CB
:100C1C0063741146FFF70CFC204610BD206B0A08CC
:100C2C0010B504461422002100F05BFC054B204655
:100C3C006360054BE36040F201132381812323821F
:100C4C0010BD00BF950100201401002030B50E4DE1
:100C5C0087B001A8FFF7E4FF296811F0010410D157
:100C6C002846FFF716FA60B101AA21460748FFF79C
:100C7C00C3FF2846FFF712FA054A0649034800F05D
:100C8C00ADFA024807B030BD1001002098020020D8
:100C9C00DC000020850B0A0810B504461422002144
:100CAC0000F01FFC054B20466360054BE36040F2EF
:100CBC00011323818123238210BD00BF4803002030
:100CCC00B002002010B50E4C86B001A8FFF7E4FF6F
:100CDC002368DB0710D42046FFF7DBF960B101AACB
:100CEC0001210848FFF788FF2046FFF7D7F9064A8D
:100CFC000649044800F072FA024806B010BD00BF65
:100D0C00AC02002034030020DC000020850B0A0814
:100D1C0070474174704708B5007CFFF747FB20EA29
:100D2C00E07008BD08B5007CFFF718FB20EAE07006
:100D3C0008BD08B5007CFFF721FB30EA200028BF76
:100D4C004FF0FF3008BD08B5007CFFF70FFB30EA11
:100D5C00200028BF4FF0FF3008BD007CFFF716BB0A
:100D6C0010B50446142100F047FA204610BD70B5AA
:100D7C00457C04460E4625B9007CFFF717FB00287E
:100D8C0005DD3146207CBDE87040FFF7DFBA284610
:100D9C0070BD000010B50446084611460022626082
:100DAC004FF47A72A260054A2074226001226274A8
:100DBC001A46FFF7C3FA204610BD00BF506B0A0855
:100DCC00007CFFF7EBBA000038B50C4D296811F028
:100DDC00010411D12846FFF75CF968B1084A214695
:100DEC00084B0948FFF7D6FF2846FFF757F9074A83
:100DFC000749054800F0F2F9034838BDE404002027
:100E0C00E8040020600400204C040020DC000020DA
:100E1C001D0D0A087047F8B5064615460C468F1886
:100E2C00BC4206D0336814F8011B9B6830469847C7
:100E3C00F6E72846F8BD0022007CFFF7BFBA002178
:100E4C00007CFFF7C3BA0021007CFFF7C7BA002172
:100E5C00007CFFF7CBBA0021007CFFF7CFBA10B5AE
:100E6C000446142100F0C8F9204610BD10B5044604
:100E7C00002363604FF47A73A360044B217408461B
:100E8C0023601146FFF7CAFA204610BD806B0A0892
:100E9C000021007CFFF7BABA10B5044630B100F05F
:100EAC0051FB90FBF4F303FB140010BD10BD0022AA
:100EBC0011464068FFF738BBF0B5164689B01122D1
:100ECC000F460446002103A800F00BFB304600F04F
:100EDC007DFB0025009581B27B6803AA3046FFF7A5
:100EEC00D7FA20B129462046FFF722FE03E003A9DA
:100EFC002046FFF70BFE204609B0F0BD002211463C
:100F0C004068FFF731BB002211464068FFF73CBB3D
:100F1C0000224068FFF730BB002281F001014068DD
:100F2C00FFF71ABB00231A4619464068FFF70CBBA3
:100F3C00002211464068FFF7E7BA00220221406800
:100F4C00FFF7EABA00231A464068FFF7D5BA00004B
:100F5C00024B04225A60024A1A6070476C0500204A
:100F6C00A86B0A0800231A464068FFF7C5BA00228E
:100F7C0002214068FFF7D0BA002211464068FFF703
:100F8C00C3BA002211464068FFF7CEBA00231A46B6
:100F9C0019464068FFF7D0BA00231A461946406834
:100FAC00FFF7D2BA002281F001014068FFF7D4BAF2
:100FBC0000224068FFF7E0BA002211464068FFF7B4
:100FCC00E3BA002211464068FFF7CEBA70B5164658
:100FDC008EB0044608A8FFF78BFD1122002103A850
:100FEC0000F07FFA304600F0F1FA00250A4B00952C
:100FFC0081B25B6803AA3046FFF74AFA20B1294652
:10100C002046FFF795FD03E003A92046FFF77EFD80
:10101C0020460EB070BD00BF6C050020024B034A89
:10102C001A6000225A60704774050020DC6B0A08B5
:10103C0010B50446806808B1FFF778F9204610BD5A
:10104C0070B51A4E0446316811F001050FD13046C7
:10105C00FFF71FF858B129461548FFF7CDFA30466F
:10106C00FFF71CF8134A1449114800F0B7F8104860
:10107C00FFF7D1FA28B1A4F10D03022B01D80020FF
:10108C0070BD00F085F8FFF703FF08B1012CF6D90D
:10109C00FFF79AFEFFF794FE18B1A4F11203012B8F
:1010AC00EDD9172C8CBF0020012070BD7C050020D1
:1010BC0080050020DC0000203D100A08172838B5F8
:1010CC0004460D460AD8FF2908D0FFF7B9FF28B10E
:1010DC0029462046BDE83840FFF7E0B838BD38B5A2
:1010EC0004460D46FFF7ACFFF0B104212046FFF794
:1010FC00CDF8042805D1A9B22046BDE83840FFF749
:10110C00DDB802212046FFF7C1F802280CD1204699
:10111C00FFF7CCF8012801D0042805D12946204638
:10112C00BDE83840FFF7D2B838BD000013B5084C05
:10113C0000231A46194600932046FFF70FFD204660
:10114C00044A054902B0BDE8104000F047B800BFA2
:10115C0090050020DC000020BB0A0A0870B504468C
:10116C0014252A46094E002100F0BBF925802025C4
:10117C003146A5602561284600F040F83146606094
:10118C00284600F03BF8E060204670BD086C0A0869
:10119C0030B50E4D87B0296811F0010413D12846E3
:1011AC00FEF777FF78B101A8FFF7D8FF01AA214617
:1011BC000748FFF75BFE2846FEF770FF054A064915
:1011CC00034800F00BF8024807B030BDA80500201A
:1011DC00AC050020DC000020210E0A080B4601465D
:1011EC00184600F065B90000024B1868BFF35F8F1A
:1011FC00704700BFC0050020FEF749BF00F000B8E3
:10120C0010B5002814BF044601242046FFF7D4F97A
:10121C0020B9FFF7E9FF08B18047F6E710BD0000E1
:10122C00184B1A68D1075CBF01221A60164B1A685A
:10123C00D2075CBF01221A60144B1A68D0075CBF3E
:10124C0001221A60124B1A68D1075CBF01221A6086
:10125C00104B1A68D2075CBF01221A600E4B1A6839
:10126C00D0075CBF01221A600C4B1A68D1075CBF17
:10127C0001221A600A4B1A68D2075CBF01221A605D
:10128C00704700BFE0050020DC050020D8050020D9
:10129C00D4050020D0050020CC050020C805002076
:1012AC00C4050020244B1A68D0075CBF01221A60C9
:1012BC00224B1A68D1075CBF01221A60204B1A68B6
:1012CC00D2075CBF01221A601E4B1A68D0075CBFA4
:1012DC0001221A601C4B1A68D1075CBF01221A60EC
:1012EC001A4B1A68D2075CBF01221A60184B1A6895
:1012FC00D0075CBF01221A60164B1A68D1075CBF7D
:10130C0001221A60144B1A68D2075CBF01221A60C2
:10131C00124B1A68D0075CBF01221A60104B1A6876
:10132C00D1075CBF01221A600E4B1A68D2075CBF52
:10133C0001221A60704700BF100600200C06002026
:10134C00080600200406002000060020FC050020F2
:10135C00F8050020F4050020F0050020EC05002025
:10136C00E8050020E4050020244B1A68D0075CBF78
:10137C0001221A60224B1A68D1075CBF01221A6045
:10138C00204B1A68D2075CBF01221A601E4B1A68E8
:10139C00D0075CBF01221A601C4B1A68D1075CBFD6
:1013AC0001221A601A4B1A68D2075CBF01221A601C
:1013BC00184B1A68D0075CBF01221A60164B1A68CA
:1013CC00D1075CBF01221A60144B1A68D2075CBFAC
:1013DC0001221A60124B1A68D0075CBF01221A60F6
:1013EC00104B1A68D1075CBF01221A600E4B1A68A9
:1013FC00D2075CBF01221A60704700BF4006002074
:10140C003C06002038060020340600203006002060
:10141C002C06002028060020240600202006002090
:10142C001C0600201806002014060020184B1A6811
:10143C00D1075CBF01221A60164B1A68D2075CBF39
:10144C0001221A60144B1A68D0075CBF01221A6083
:10145C00124B1A68D1075CBF01221A60104B1A6834
:10146C00D2075CBF01221A600E4B1A68D0075CBF12
:10147C0001221A600C4B1A68D1075CBF01221A605A
:10148C000A4B1A68D2075CBF01221A60704700BF72
:10149C00600600205C060020580600205406002040
:1014AC00500600204C060020480600204406002070
:1014BC0010B5054C13462CB10A4601460220AFF379
:1014CC00008010BD204610BD0000000010B5431E6A
:1014DC000A44914204D011F8014B03F8014FF8E78C
:1014EC0010BD03460244934202D003F8011BFAE7F5
:1014FC007047000038B5124B05461C68A36BD3B976
:10150C001820FFF759F843F20E33A06303804AF614
:10151C00CD33438041F2342383804EF26D63C3801C
:10152C004DF6EC630381052343810B238381012258
:10153C000023C0E90423A36B00221D615A6138BD4E
:10154C00D8000020194B10B51C68A36BD3B9182018
:10155C00FFF732F843F20E33A06303804AF6CD3323
:10156C00438041F2342383804EF26D63C3804DF689
:10157C00EC630381052343810B2383810122002328
:10158C00C0E90423A16B0A4C0B6948695C43094A06
:10159C0002FB0040A3FB02230132034443F100038E
:1015AC00C1E9042323F0004010BD00BFD800002087
:1015BC002DF451582D7F954C10F8012B11F8013B4F
:1015CC00012A28BF9A42F7D0D01A7047034613F865
:1015DC00012B002AFBD1181A013870471D000A088C
:1015EC005D000A0889000A088D000A080000000046
:1015FC0076617220626173655F75726C3D276874E9
:10160C0074703A2F2F3139322E3136382E302E312C
:10161C002F273B766172206E6574776F726B5F6CEF
:10162C006973743B766172207075626C69635F6B71
:10163C0065793B766172207273613D6E65772052DD
:10164C0053414B657928293B766172207363616E37
:10165C00427574746F6E3D646F63756D656E742E38
:10166C00676574456C656D656E74427949642827AD
:10167C007363616E2D627574746F6E27293B76618E
:10168C007220636F6E6E656374427574746F6E3D19
:10169C00646F63756D656E742E676574456C656DEE
:1016AC00656E74427949642827636F6E6E65637446
:1016BC002D627574746F6E27293B76617220636F8F
:1016CC007079427574746F6E3D646F63756D656E81
:1016DC00742E676574456C656D656E7442794964EA
:1016EC002827636F70792D627574746F6E27293B90
:1016FC007661722073686F77427574746F6E3D6497
:10170C006F63756D656E742E676574456C656D657C
:10171C006E7442794964282773686F772D627574EB
:10172C00746F6E27293B76617220646576696365F8
:10173C0049443D646F63756D656E742E67657445C1
:10174C006C656D656E7442794964282764657669A9
:10175C0063652D696427293B76617220636F6E6E19
:10176C00656374466F726D3D646F63756D656E7401
:10177C002E676574456C656D656E74427949642895
:10178C0027636F6E6E6563742D666F726D27293BD0
:10179C00766172207075626C69635F6B65795F63EB
:1017AC00616C6C6261636B3D7B73756363657373B2
:1017BC003A66756E6374696F6E2861297B636F6E10
:1017CC00736F6C652E6C6F6728275075626C69633C
:1017DC00206B65793A20272B612E62293B7075624C
:1017EC006C69635F6B65793D612E623B7273612E30
:1017FC007365745075626C6963287075626C69638B
:10180C005F6B65792E737562737472696E672835B8
:10181C00382C35382B323536292C7075626C69634F
:10182C005F6B65792E737562737472696E6728339A
:10183C0031382C3331382B3629293B7D2C6572728B
:10184C006F723A66756E6374696F6E28612C6229CB
:10185C007B636F6E736F6C652E6C6F672861293BB1
:10186C0077696E646F772E616C6572742827546883
:10187C006572652077617320612070726F626C6590
:10188C006D206665746368696E6720696D706F7230
:10189C0074616E7420696E666F726D6174696F6EBF
:1018AC002066726F6D20796F75722064657669633E
:1018BC00652E20506C65617365207665726966795A
:1018CC0020796F757220636F6E6E656374696F6ECD
:1018DC002C207468656E2072656C6F61642074686E
:1018EC00697320706167652E27293B7D7D3B76618E
:1018FC0072206465766963655F69645F63616C6CB3
:10190C006261636B3D7B737563636573733A667574
:10191C006E6374696F6E2861297B76617220623DFB
:10192C00612E69643B64657669636549442E766112
:10193C006C75653D623B7D2C6572726F723A667593
:10194C006E6374696F6E28612C62297B636F6E7392
:10195C006F6C652E6C6F672861293B766172206312
:10196C003D27434F4D4D554E49434154494F4E5FD2
:10197C004552524F52273B64657669636549442E44
:10198C0076616C75653D633B7D7D3B766172207342
:10199C0063616E3D66756E6374696F6E28297B6337
:1019AC006F6E736F6C652E6C6F6728275363616E57
:1019BC006E696E672E2E2E2127293B646973616236
:1019CC006C65427574746F6E7328293B7363616E1A
:1019DC00427574746F6E2E696E6E657248544D4C00
:1019EC003D275363616E6E696E672E2E2E273B6307
:1019FC006F6E6E656374427574746F6E2E696E6E65
:101A0C00657248544D4C3D27436F6E6E6563742769
:101A1C003B646F63756D656E742E676574456C659C
:101A2C006D656E74427949642827636F6E6E6563C9
:101A3C00742D64697627292E7374796C652E64690C
:101A4C0073706C61793D276E6F6E65273B646F63B5
:101A5C00756D656E742E676574456C656D656E7419
:101A6C004279496428276E6574776F726B732D64A5
:101A7C00697627292E7374796C652E646973706C82
:101A8C0061793D276E6F6E65273B67657452657192
:101A9C007565737428626173655F75726C2B27733F
:101AAC0063616E2D6170272C7363616E5F63616C73
:101ABC006C6261636B293B7D3B7661722073636161
:101ACC006E5F63616C6C6261636B3D7B73756363AA
:101ADC006573733A66756E6374696F6E2861297BE2
:101AEC006E6574776F726B5F6C6973743D612E7386
:101AFC0063616E733B636F6E736F6C652E6C6F6797
:101B0C0028274920666F756E643A27293B766172E7
:101B1C0020623D646F63756D656E742E67657445E8
:101B2C006C656D656E744279496428276E657477AF
:101B3C006F726B732D64697627293B622E696E6E0A
:101B4C00657248544D4C3D27273B6966286E657479
:101B5C00776F726B5F6C6973742E6C656E677468EB
:101B6C003E3029666F722876617220633D303B638C
:101B7C003C6E6574776F726B5F6C6973742E6C65F9
:101B8C006E6774683B632B2B297B737369643D6EA2
:101B9C006574776F726B5F6C6973745B635D2E73C6
:101BAC007369643B636F6E736F6C652E6C6F672823
:101BBC006E6574776F726B5F6C6973745B635D29B0
:101BCC003B6164645F776966695F6F7074696F6E9F
:101BDC0028622C73736964293B646F63756D656E41
:101BEC00742E676574456C656D656E7442794964D5
:101BFC002827636F6E6E6563742D64697627292EB2
:101C0C007374796C652E646973706C61793D2762AD
:101C1C006C6F636B273B7D656C736520622E696E00
:101C2C006E657248544D4C3D273C7020636C61735B
:101C3C00733D5C277363616E6E696E672D6572729E
:101C4C006F725C273E4E6F206E6574776F726B738C
:101C5C0020666F756E642E3C2F703E273B7D2C6585
:101C6C0072726F723A66756E6374696F6E28612951
:101C7C007B636F6E736F6C652E6C6F672827536375
:101C8C00616E6E696E67206572726F723A272B6196
:101C9C00293B646F63756D656E742E676574456C56
:101CAC00656D656E744279496428276E6574776F2B
:101CBC00726B732D64697627292E696E6E65724876
:101CCC00544D4C3D273C7020636C6173733D5C2715
:101CDC007363616E6E696E672D6572726F725C27CD
:101CEC003E5363616E6E696E67206572726F722E01
:101CFC003C2F703E273B7D2C7265676172646C656E
:101D0C0073733A66756E6374696F6E28297B73639F
:101D1C00616E427574746F6E2E696E6E6572485486
:101D2C004D4C3D2752652D5363616E273B656E61AB
:101D3C00626C65427574746F6E7328293B646F63B3
:101D4C00756D656E742E676574456C656D656E7426
:101D5C004279496428276E6574776F726B732D64B2
:101D6C00697627292E7374796C652E646973706C8F
:101D7C0061793D27626C6F636B273B7D7D3B7661A0
:101D8C007220636F6E6669677572653D66756E630A
:101D9C0074696F6E2861297B612E70726576656E31
:101DAC007444656661756C7428293B766172206297
:101DBC003D6765745F73656C65637465645F6E65C0
:101DCC0074776F726B28293B76617220633D646F68
:101DDC0063756D656E742E676574456C656D656EA7
:101DEC007442794964282770617373776F72642722
:101DFC00292E76616C75653B6966282162297B7793
:101E0C00696E646F772E616C6572742827506C65EF
:101E1C006173652073656C6563742061206E6574F5
:101E2C00776F726B2127293B72657475726E206611
:101E3C00616C73653B7D76617220643D7B6964786F
:101E4C003A302C737369643A622E737369642C7024
:101E5C0077643A7273612E656E637279707428635D
:101E6C00292C7365633A622E7365632C63683A623E
:101E7C002E63687D3B636F6E6E656374427574741C
:101E8C006F6E2E696E6E657248544D4C3D275365CE
:101E9C006E64696E672063726564656E7469616CEB
:101EAC00732E2E2E273B64697361626C65427574C8
:101EBC00746F6E7328293B636F6E736F6C652E6C39
:101ECC006F67282753656E64696E6720637265645B
:101EDC00656E7469616C733A20272B4A534F4E2EF2
:101EEC00737472696E67696679286429293B706F0F
:101EFC0073745265717565737428626173655F756F
:101F0C00726C2B27636F6E6669677572652D6170D5
:101F1C00272C642C636F6E6669677572655F6361ED
:101F2C006C6C6261636B293B7D3B76617220636FE5
:101F3C006E6669677572655F63616C6C6261636B19
:101F4C003D7B737563636573733A66756E63746911
:101F5C006F6E2861297B636F6E736F6C652E6C6F6F
:101F6C0067282743726564656E7469616C732072AF
:101F7C00656365697665642E27293B636F6E6E65B4
:101F8C006374427574746F6E2E696E6E657248540C
:101F9C004D4C3D2743726564656E7469616C7320AA
:101FAC0072656365697665642E2E2E273B706F73A0
:101FBC00745265717565737428626173655F7572AF
:101FCC006C2B27636F6E6E6563742D6170272C7B91
:101FDC006964783A307D2C636F6E6E6563745F63F1
:101FEC00616C6C6261636B293B7D2C6572726F72E4
:101FFC003A66756E6374696F6E28612C62297B6317
:10200C006F6E736F6C652E6C6F672827436F6E66EF
:10201C006967757265206572726F723A20272B6141
:10202C00293B77696E646F772E616C657274282713
:10203C0054686520636F6E66696775726174696F49
:10204C006E20636F6D6D616E64206661696C656492
:10205C002C20636865636B207468617420796F75DC
:10206C0020617265207374696C6C2077656C6C20D0
:10207C00636F6E6E656374656420746F207468653D
:10208C00206465766963655C27732057694669200F
:10209C00686F7473706F7420616E642072657472F3
:1020AC00792E27293B636F6E6E6563744275747469
:1020BC006F6E2E696E6E657248544D4C3D2752659D
:1020CC00747279273B656E61626C65427574746FCE
:1020DC006E7328293B7D7D3B76617220636F6E6E3B
:1020EC006563745F63616C6C6261636B3D7B73757C
:1020FC0063636573733A66756E6374696F6E28619A
:10210C00297B636F6E736F6C652E6C6F672827412C
:10211C007474656D7074696E6720746F20636F6E74
:10212C006E65637420746F2074686520636C6F75C2
:10213C00642E27293B636F6E6E65637442757474ED
:10214C006F6E2E696E6E657248544D4C3D2741740E
:10215C0074656D7074696E6720746F20636F6E6E3A
:10216C006563742E2E2E273B77696E646F772E6114
:10217C006C6572742827596F757220646576696373
:10218C00652073686F756C64206E6F772073746153
:10219C00727420666C617368696E6720677265651E
:1021AC006E20616E6420617474656D707420746F40
:1021BC0020636F6E6E65637420746F207468652085
:1021CC00636C6F75642E2054686973207573756128
:1021DC006C6C792074616B65732061626F7574200F
:1021EC003230207365636F6E64732C206166746586
:1021FC00722077686963682069742077696C6C2039
:10220C00626567696E20736C6F776C7920626C699C
:10221C006E6B696E67206379616E2E205C6E5C6EEE
:10222C005C6E496620746869732070726F636573A5
:10223C0073206661696C73206265636175736520D8
:10224C00796F7520656E746572656420746865209D
:10225C0077726F6E672070617373776F72642C2066
:10226C00746865206465766963652077696C6C2099
:10227C00666C61736820677265656E20696E646553
:10228C0066696E6974656C792E20496E2074686974
:10229C007320636173652C20686F6C6420746865AF
:1022AC0020736574757020627574746F6E20666F20
:1022BC00722036207365636F6E647320756E74695B
:1022CC006C2074686520646576696365207374613D
:1022DC0072747320626C696E6B696E6720626C75C8
:1022EC006520616761696E2E205468656E20726589
:1022FC00636F6E6E65637420746F2074686520570D
:10230C0069466920686F7473706F742069742067F4
:10231C00656E65726174657320616E642072656CA4
:10232C006F61642074686973207061676520746FD5
:10233C002074727920616761696E2E27293B7D2C90
:10234C006572726F723A66756E6374696F6E28612E
:10235C002C62297B636F6E736F6C652E6C6F6728B4
:10236C0027436F6E6E656374206572726F723A20CC
:10237C00272B61293B77696E646F772E616C6572D0
:10238C0074282754686520636F6E6E6563742063D0
:10239C006F6D6D616E64206661696C65642C206381
:1023AC006865636B207468617420796F7520617245
:1023BC0065207374696C6C2077656C6C20636F6E30
:1023CC006E656374656420746F2074686520646541
:1023DC00766963655C2773205769466920686F745A
:1023EC0073706F7420616E642072657472792E271D
:1023FC00293B636F6E6E656374427574746F6E2ED9
:10240C00696E6E657248544D4C3D275265747279F5
:10241C00273B656E61626C65427574746F6E7328D0
:10242C00293B7D7D3B7661722064697361626C65CA
:10243C00427574746F6E733D66756E6374696F6EFE
:10244C0028297B636F6E6E656374427574746F6E4E
:10245C002E64697361626C65643D747275653B735F
:10246C0063616E427574746F6E2E64697361626C15
:10247C0065643D747275653B7D3B76617220656E5B
:10248C0061626C65427574746F6E733D66756E63D4
:10249C0074696F6E28297B636F6E6E656374427509
:1024AC0074746F6E2E64697361626C65643D6661F1
:1024BC006C73653B7363616E427574746F6E2E64DE
:1024CC00697361626C65643D66616C73653B7D3BF1
:1024DC00766172206164645F776966695F6F70749E
:1024EC00696F6E3D66756E6374696F6E28612C62E0
:1024FC00297B76617220633D646F63756D656E74C4
:10250C002E637265617465456C656D656E74282704
:10251C00494E50555427293B632E747970653D27DD
:10252C00726164696F273B632E76616C75653D62E1
:10253C003B632E69643D623B632E6E616D653D2786
:10254C0073736964273B632E636C6173734E616DA7
:10255C00653D27726164696F273B76617220643D2B
:10256C00646F63756D656E742E6372656174654519
:10257C006C656D656E74282744495627293B642E7B
:10258C00636C6173734E616D653D27726164696F35
:10259C002D646976273B642E617070656E644368A8
:1025AC00696C642863293B76617220653D646F63B6
:1025BC00756D656E742E637265617465456C656DC1
:1025CC00656E7428276C6162656C27293B652E68E3
:1025DC00746D6C466F723D623B652E696E6E6572F2
:1025EC0048544D4C3D623B642E617070656E644383
:1025FC0068696C642865293B612E617070656E6436
:10260C004368696C642864293B7D3B766172206762
:10261C0065745F73656C65637465645F6E65747710
:10262C006F726B3D66756E6374696F6E28297B667D
:10263C006F722876617220613D303B613C6E65742F
:10264C00776F726B5F6C6973742E6C656E677468F0
:10265C003B612B2B297B737369643D6E6574776FBB
:10266C00726B5F6C6973745B615D2E737369643B31
:10267C00696628646F63756D656E742E6765744545
:10268C006C656D656E74427949642873736964294D
:10269C002E636865636B65642972657475726E2050
:1026AC006E6574776F726B5F6C6973745B615D3BA5
:1026BC007D7D3B76617220636F70793D66756E63CC
:1026CC0074696F6E28297B77696E646F772E7072D0
:1026DC006F6D70742827436F707920746F20636C52
:1026EC006970626F6172643A204374726C202B20A3
:1026FC00432C20456E746572272C6465766963657E
:10270C0049442E76616C7565293B7D3B7661722060
:10271C00746F67676C6553686F773D66756E63742D
:10272C00696F6E28297B76617220613D646F6375D9
:10273C006D656E742E676574456C656D656E74425F
:10274C00794964282770617373776F726427293B0A
:10275C00696E707574547970653D612E747970650D
:10276C003B696628696E707574547970653D3D3DA2
:10277C002770617373776F726427297B73686F7727
:10278C00427574746F6E2E696E6E657248544D4C42
:10279C003D2748696465273B612E747970653D2738
:1027AC0074657874273B7D656C73657B73686F7794
:1027BC00427574746F6E2E696E6E657248544D4C12
:1027CC003D2753686F77273B612E747970653D27E1
:1027DC0070617373776F7264273B7D7D3B7661729A
:1027EC0020676574526571756573743D66756E63AB
:1027FC0074696F6E28612C62297B76617220633D4F
:10280C006E657720584D4C487474705265717565BF
:10281C00737428293B632E6F70656E2827474554C7
:10282C00272C612C74727565293B632E74696D6558
:10283C006F75743D383030303B632E73656E642891
:10284C00293B632E6F6E7265616479737461746574
:10285C006368616E67653D66756E6374696F6E283B
:10286C00297B696628632E7265616479537461747F
:10287C00653D3D342969662862297B696628632E8B
:10288C007374617475733D3D323030297B696628F1
:10289C00622E7375636365737329622E737563633C
:1028AC00657373284A534F4E2E706172736528639B
:1028BC002E726573706F6E73655465787429293B3D
:1028CC007D656C736520696628622E6572726F7205
:1028DC0029622E6572726F7228632E73746174751F
:1028EC00732C632E726573706F6E73655465787498
:1028FC00293B696628622E7265676172646C657328
:10290C007329622E7265676172646C657373282912
:10291C003B7D7D3B7D3B76617220706F737452659D
:10292C0071756573743D66756E6374696F6E28613D
:10293C002C622C63297B76617220643D4A534F4E86
:10294C002E737472696E676966792862293B7661A9
:10295C007220653D6E657720584D4C4874747052EA
:10296C0065717565737428293B652E6F70656E28CB
:10297C0027504F5354272C612C74727565293B6575
:10298C002E74696D656F75743D343030303B652E37
:10299C0073657452657175657374486561646572AD
:1029AC002827436F6E74656E742D54797065272CCF
:1029BC00276D756C7469706172742F666F726D2DF2
:1029CC006461746127293B652E73656E64286429E4
:1029DC003B652E6F6E7265616479737461746563A7
:1029EC0068616E67653D66756E6374696F6E2829E4
:1029FC007B696628652E72656164795374617465B0
:102A0C003D3D342969662863297B696628652E73E8
:102A1C0074617475733D3D323030297B696628636F
:102A2C002E7375636365737329632E7375636365A6
:102A3C007373284A534F4E2E706172736528652E3E
:102A4C00726573706F6E73655465787429293B7D5C
:102A5C00656C736520696628632E6572726F7229C6
:102A6C00632E6572726F7228652E73746174757340
:102A7C002C652E726573706F6E736554657874294E
:102A8C003B696628632E7265676172646C6573734B
:102A9C0029632E7265676172646C65737328293BB8
:102AAC007D7D3B7D3B6966287363616E42757474F2
:102ABC006F6E2E6164644576656E744C69737465D3
:102ACC006E6572297B636F7079427574746F6E2EAC
:102ADC006164644576656E744C697374656E657279
:102AEC002827636C69636B272C636F7079293B73A0
:102AFC00686F77427574746F6E2E61646445766589
:102B0C006E744C697374656E65722827636C6963A7
:102B1C006B272C746F67676C6553686F77293B73F1
:102B2C0063616E427574746F6E2E61646445766574
:102B3C006E744C697374656E65722827636C696377
:102B4C006B272C7363616E293B636F6E6E656374C8
:102B5C00466F726D2E6164644576656E744C697354
:102B6C0074656E657228277375626D6974272C63A2
:102B7C006F6E666967757265293B7D656C73652040
:102B8C006966287363616E427574746F6E2E61741E
:102B9C00746163684576656E74297B636F707942E6
:102BAC007574746F6E2E6174746163684576656EAE
:102BBC007428276F6E636C69636B272C636F707955
:102BCC00293B73686F77427574746F6E2E617474E1
:102BDC006163684576656E7428276F6E636C6963F4
:102BEC006B272C746F67676C6553686F77293B7321
:102BFC0063616E427574746F6E2E61747461636878
:102C0C004576656E7428276F6E636C69636B272C31
:102C1C007363616E293B636F6E6E656374466F728E
:102C2C006D2E6174746163684576656E7428276FC8
:102C3C006E7375626D6974272C636F6E6669677548
:102C4C007265293B7D67657452657175657374286F
:102C5C00626173655F75726C2B2764657669636559
:102C6C002D6964272C6465766963655F69645F63AD
:102C7C00616C6C6261636B293B676574526571753D
:102C8C0065737428626173655F75726C2B27707540
:102C9C00626C69632D6B6579272C7075626C696346
:102CAC005F6B65795F63616C6C6261636B293B0080
:102CBC0068746D6C7B6865696768743A313030256F
:102CCC003B6D617267696E3A6175746F3B626163EB
:102CDC006B67726F756E642D636F6C6F723A776889
:102CEC006974657D626F64797B626F782D73697A24
:102CFC00696E673A626F726465722D626F783B6DB4
:102D0C00696E2D6865696768743A313030253B709F
:102D1C00616464696E673A323070783B6261636BF0
:102D2C0067726F756E642D636F6C6F723A233161CD
:102D3C00616265303B666F6E742D66616D696C798E
:102D4C003A274C75636964612053616E7320556E2C
:102D5C0069636F6465272C274C7563696461204730
:102D6C0072616E6465272C73616E732D7365726965
:102D7C00663B666F6E742D7765696768743A6E6F23
:102D8C00726D616C3B636F6C6F723A7768697465D6
:102D9C003B6D617267696E2D746F703A303B6D617B
:102DAC007267696E2D6C6566743A6175746F3B6DF4
:102DBC00617267696E2D72696768743A6175746FB8
:102DCC003B6D617267696E2D626F74746F6D3A3012
:102DDC003B6D61782D77696474683A343030707863
:102DEC003B746578742D616C69676E3A63656E74BB
:102DFC0065723B626F726465723A31707820736FE2
:102E0C006C696420233665366537303B626F7264BB
:102E1C0065722D7261646975733A3470787D64697A
:102E2C00767B6D617267696E2D746F703A32357096
:102E3C00783B6D617267696E2D626F74746F6D3A59
:102E4C00323570787D68317B6D617267696E2D7477
:102E5C006F703A323570783B6D617267696E2D62B6
:102E6C006F74746F6D3A323570787D627574746FEF
:102E7C006E7B626F726465722D636F6C6F723A2336
:102E8C003163373562653B6261636B67726F756E78
:102E9C00642D636F6C6F723A233163373562653B17
:102EAC00636F6C6F723A77686974653B626F7264BA
:102EBC0065722D7261646975733A3570783B68651B
:102ECC00696768743A333070783B666F6E742D7333
:102EDC00697A653A313570783B666F6E742D77651B
:102EEC00696768743A626F6C647D627574746F6E36
:102EFC002E696E7075742D68656C7065727B62617D
:102F0C00636B67726F756E642D636F6C6F723A23AF
:102F1C006265626562653B626F726465722D636F98
:102F2C006C6F723A236265626562653B636F6C6FAE
:102F3C00723A233665366537303B6D617267696E60
:102F4C002D6C6566743A3370787D627574746F6E2F
:102F5C003A64697361626C65647B6261636B67720E
:102F6C006F756E642D636F6C6F723A236265626568
:102F7C0062653B626F726465722D636F6C6F723A3F
:102F8C00236265626562653B636F6C6F723A77684A
:102F9C006974657D696E7075745B747970653D27B5
:102FAC0074657874275D2C696E7075745B747970B8
:102FBC00653D2770617373776F7264275D7B626107
:102FCC00636B67726F756E642D636F6C6F723A779B
:102FDC00686974653B636F6C6F723A23366536654E
:102FEC0037303B626F726465722D636F6C6F723A2F
:102FFC0077686974653B626F726465722D72616487
:10300C006975733A3570783B6865696768743A32EC
:10301C003570783B746578742D616C69676E3A63B2
:10302C00656E7465723B666F6E742D73697A653A62
:10303C00313570787D696E7075743A64697361624C
:10304C006C65647B6261636B67726F756E642D6314
:10305C006F6C6F723A236265626562653B626F7278
:10306C006465722D636F6C6F723A23626562656280
:10307C00657D696E7075745B747970653D277261DE
:10308C0064696F275D7B706F736974696F6E3A72D8
:10309C00656C61746976653B626F74746F6D3A2D03
:1030AC00302E3333656D3B6D617267696E3A303B20
:1030BC00626F726465723A303B6865696768743A2E
:1030CC00312E35656D3B77696474683A3135257DF1
:1030DC006C6162656C7B70616464696E672D746F82
:1030EC00703A3770783B70616464696E672D626FFB
:1030FC0074746F6D3A3770783B70616464696E6795
:10310C002D6C6566743A35253B646973706C617916
:10311C003A696E6C696E652D626C6F636B3B776997
:10312C006474683A3830253B746578742D616C6929
:10313C00676E3A6C6566747D696E7075745B7479D4
:10314C0070653D27726164696F275D3A63686563DA
:10315C006B65642B6C6162656C7B666F6E742D772E
:10316C0065696768743A626F6C643B636F6C6F720D
:10317C003A233163373562657D2E7363616E6E69F8
:10318C006E672D6572726F727B666F6E742D7765CC
:10319C00696768743A626F6C643B746578742D610E
:1031AC006C69676E3A63656E7465727D2E726164CC
:1031BC00696F2D6469767B626F782D73697A696E9D
:1031CC00673A626F726465722D626F783B6D6172E3
:1031DC0067696E3A3270783B6D617267696E2D6CFF
:1031EC006566743A6175746F3B6D617267696E2DBB
:1031FC0072696768743A6175746F3B6261636B677F
:10320C00726F756E642D636F6C6F723A7768697448
:10321C00653B636F6C6F723A233665366537303BAE
:10322C00626F726465723A31707820736F6C696486
:10323C0020233665366537303B626F726465722DBC
:10324C007261646975733A3370783B77696474683A
:10325C003A313030253B70616464696E673A357081
:10326C00787D236E6574776F726B732D6469767BD2
:10327C006D617267696E2D6C6566743A6175746FF9
:10328C003B6D617267696E2D72696768743A61751E
:10329C00746F3B746578742D616C69676E3A6C65FC
:1032AC0066747D236465766963652D69647B7465DA
:1032BC0078742D616C69676E3A63656E7465727DA6
:1032CC00237363616E2D627574746F6E7B6D696EA2
:1032DC002D77696474683A31303070787D23636F70
:1032EC006E6E6563742D627574746F6E7B64697336
:1032FC00706C61793A626C6F636B3B6D696E2D77A4
:10330C00696474683A31303070783B6D617267690A
:10331C006E2D746F703A313070783B6D61726769E5
:10332C006E2D6C6566743A6175746F3B6D61726776
:10333C00696E2D72696768743A6175746F3B6D6163
:10334C007267696E2D626F74746F6D3A323070787B
:10335C007D2370617373776F72647B6D61726769C3
:10336C006E2D746F703A323070783B6D6172676994
:10337C006E2D626F74746F6D3A313070787D0066AB
:10338C00756E6374696F6E20626E705253686966F5
:10339C0074546F28612C62297B622E733D746869AA
:1033AC00732E733B76617220633D4D6174682E669B
:1033BC006C6F6F7228612F746869732E4442293BBD
:1033CC00696628633E3D746869732E74297B622E8E
:1033DC00743D303B72657475726E3B7D7661722004
:1033EC00643D6125746869732E44423B766172209A
:1033FC00653D746869732E44422D643B766172207E
:10340C00663D28313C3C64292D313B625B305D3D8F
:10341C00746869735B635D3E3E643B666F722876CD
:10342C00617220673D632B313B673C746869732E76
:10343C00743B2B2B67297B625B672D632D315D7C85
:10344C003D28746869735B675D2666293C3C653B67
:10345C00625B672D635D3D746869735B675D3E3EBF
:10346C00643B7D696628643E3029625B74686973CD
:10347C002E742D632D315D7C3D28746869732E7319
:10348C002666293C3C653B622E743D746869732E3C
:10349C00742D633B622E636C616D7028293B7D66D5
:1034AC00756E6374696F6E20626E70537562546FC3
:1034BC0028612C62297B76617220633D302C643D3F
:1034CC00302C653D4D6174682E6D696E28612E74CB
:1034DC002C746869732E74293B7768696C65286352
:1034EC003C65297B642B3D746869735B635D2D615E
:1034FC005B635D3B625B632B2B5D3D64267468698B
:10350C00732E444D3B643E3E3D746869732E4442B9
:10351C003B7D696628612E743C746869732E74292E
:10352C007B642D3D612E733B7768696C6528633C29
:10353C00746869732E74297B642B3D746869735BA2
:10354C00635D3B625B632B2B5D3D64267468697322
:10355C002E444D3B643E3E3D746869732E44423BA1
:10356C007D642B3D746869732E733B7D656C73654C
:10357C007B642B3D746869732E733B7768696C654B
:10358C0028633C612E74297B642D3D615B635D3B3C
:10359C00625B632B2B5D3D6426746869732E444D0E
:1035AC003B643E3E3D746869732E44423B7D642D02
:1035BC003D612E733B7D622E733D28643C30293F68
:1035CC002D313A303B696628643C2D3129625B63AE
:1035DC002B2B5D3D746869732E44562B643B656CD4
:1035EC00736520696628643E3029625B632B2B5D12
:1035FC003D643B622E743D633B622E636C616D7067
:10360C0028293B7D66756E6374696F6E20626E70DF
:10361C004D756C7469706C79546F28612C62297BC0
:10362C0076617220633D746869732E616273282918
:10363C002C643D612E61627328293B766172206592
:10364C003D632E743B622E743D652B642E743B7768
:10365C0068696C65282D2D653E3D3029625B655D82
:10366C003D303B666F7228653D303B653C642E7483
:10367C003B2B2B6529625B652B632E745D3D632EA2
:10368C00616D28302C645B655D2C622C652C302CB4
:10369C00632E74293B622E733D303B622E636C614A
:1036AC006D7028293B696628746869732E73213DF7
:1036BC00612E7329426967496E74656765722E5A6B
:1036CC0045524F2E737562546F28622C62293B7DD4
:1036DC0066756E6374696F6E20626E70537175617E
:1036EC007265546F2861297B76617220623D746823
:1036FC0069732E61627328293B76617220633D6188
:10370C002E743D322A622E743B7768696C65282DC5
:10371C002D633E3D3029615B635D3D303B666F72CE
:10372C0028633D303B633C622E742D313B2B2B6365
:10373C00297B76617220643D622E616D28632C6258
:10374C005B635D2C612C322A632C302C31293B6954
:10375C00662828615B632B622E745D2B3D622E61A3
:10376C006D28632B312C322A625B635D2C612C3209
:10377C002A632B312C642C622E742D632D31292954
:10378C003E3D622E4456297B615B632B622E745D39
:10379C002D3D622E44563B615B632B622E742B31A4
:1037AC005D3D313B7D7D696628612E743E3029611B
:1037BC005B612E742D315D2B3D622E616D28632C67
:1037CC00625B635D2C612C322A632C302C31293BDB
:1037DC00612E733D303B612E636C616D7028293B0B
:1037EC007D66756E6374696F6E20626E7044697667
:1037FC0052656D546F28612C622C63297B76617243
:10380C0020643D612E61627328293B696628642E11
:10381C00743C3D302972657475726E3B7661722012
:10382C00653D746869732E61627328293B6966284B
:10383C00652E743C642E74297B69662862213D6E6A
:10384C00756C6C29622E66726F6D496E7428302906
:10385C003B69662863213D6E756C6C2974686973CD
:10386C002E636F7079546F2863293B72657475727F
:10387C006E3B7D696628633D3D6E756C6C29633DBE
:10388C006E626928293B76617220663D6E626928FA
:10389C00292C673D746869732E732C683D612E73F7
:1038AC003B76617220693D746869732E44422D6EBB
:1038BC006269747328645B642E742D315D293B69D5
:1038CC006628693E30297B642E6C53686966745493
:1038DC006F28692C66293B652E6C53686966745495
:1038EC006F28692C63293B7D656C73657B642E6343
:1038FC006F7079546F2866293B652E636F7079540D
:10390C006F2863293B7D766172206A3D662E743B7D
:10391C00766172206B3D665B6A2D315D3B69662872
:10392C006B3D3D302972657475726E3B7661722009
:10393C006C3D6B2A28313C3C746869732E463129E6
:10394C002B28286A3E31293F665B6A2D325D3E3E4C
:10395C00746869732E46323A30293B766172206D59
:10396C003D746869732E46562F6C2C6E3D28313C85
:10397C003C746869732E4631292F6C2C6F3D313C99
:10398C003C746869732E46323B76617220703D63DD
:10399C002E742C713D702D6A2C723D28623D3D6E4B
:1039AC00756C6C293F6E626928293A623B662E64FD
:1039BC006C5368696674546F28712C72293B696664
:1039CC0028632E636F6D70617265546F2872293E87
:1039DC003D30297B635B632E742B2B5D3D313B6348
:1039EC002E737562546F28722C63293B7D42696774
:1039FC00496E74656765722E4F4E452E646C536824
:103A0C00696674546F286A2C72293B722E73756226
:103A1C00546F28662C66293B7768696C6528662E7E
:103A2C00743C6A29665B662E742B2B5D3D303B77AC
:103A3C0068696C65282D2D713E3D30297B7661724D
:103A4C0020733D28635B2D2D705D3D3D6B293F74CC
:103A5C006869732E444D3A4D6174682E666C6F6FB5
:103A6C007228635B705D2A6D2B28635B702D315D52
:103A7C002B6F292A6E293B69662828635B705D2BA6
:103A8C003D662E616D28302C732C632C712C302CE0
:103A9C006A29293C73297B662E646C5368696674A9
:103AAC00546F28712C72293B632E737562546F28E6
:103ABC00722C63293B7768696C6528635B705D3C8D
:103ACC002D2D7329632E737562546F28722C632904
:103ADC003B7D7D69662862213D6E756C6C297B632C
:103AEC002E64725368696674546F286A2C62293B81
:103AFC0069662867213D6829426967496E74656764
:103B0C0065722E5A45524F2E737562546F28622C73
:103B1C0062293B7D632E743D6A3B632E636C616D41
:103B2C007028293B696628693E3029632E725368D8
:103B3C00696674546F28692C63293B696628673C55
:103B4C003029426967496E74656765722E5A455211
:103B5C004F2E737562546F28632C63293B7D6675F9
:103B6C006E6374696F6E20626E4D6F642861297B81
:103B7C0076617220623D6E626928293B74686973B4
:103B8C002E61627328292E64697652656D546F28F4
:103B9C00612C6E756C6C2C62293B696628746869A3
:103BAC00732E733C302626622E636F6D70617265C6
:103BBC00546F28426967496E74656765722E5A4561
:103BCC00524F293E3029612E737562546F28622C36
:103BDC0062293B72657475726E20623B7D66756EF0
:103BEC006374696F6E20436C617373696328612918
:103BFC007B746869732E6D3D613B7D66756E637475
:103C0C00696F6E2063436F6E766572742861297BD1
:103C1C00696628612E733C307C7C612E636F6D70FD
:103C2C00617265546F28746869732E6D293E3D303E
:103C3C002972657475726E20612E6D6F64287468BC
:103C4C0069732E6D293B656C736520726574757292
:103C5C006E20613B7D66756E6374696F6E20635276
:103C6C0065766572742861297B72657475726E2035
:103C7C00613B7D66756E6374696F6E20635265641B
:103C8C007563652861297B612E64697652656D5474
:103C9C006F28746869732E6D2C6E756C6C2C612991
:103CAC003B7D66756E6374696F6E20634D756C54E5
:103CBC006F28612C622C63297B612E6D756C746985
:103CCC00706C79546F28622C63293B746869732E6D
:103CDC007265647563652863293B7D66756E6374D4
:103CEC00696F6E2063537172546F28612C62297B4B
:103CFC00612E737175617265546F2862293B74680B
:103D0C0069732E7265647563652862293B7D436C0B
:103D1C0061737369632E70726F746F747970652E32
:103D2C00636F6E766572743D63436F6E7665727405
:103D3C003B436C61737369632E70726F746F74792B
:103D4C0070652E7265766572743D63526576657228
:103D5C00743B436C61737369632E70726F746F7410
:103D6C007970652E7265647563653D635265647523
:103D7C0063653B436C61737369632E70726F746F10
:103D8C00747970652E6D756C546F3D634D756C5404
:103D9C006F3B436C61737369632E70726F746F74D5
:103DAC007970652E737172546F3D63537172546FD9
:103DBC003B66756E6374696F6E20626E70496E76C9
:103DCC00446967697428297B696628746869732E4D
:103DDC00743C312972657475726E20303B76617259
:103DEC0020613D746869735B305D3B6966282861AE
:103DFC002631293D3D302972657475726E20303B39
:103E0C0076617220623D6126333B623D28622A282E
:103E1C00322D286126307866292A622929263078A5
:103E2C00663B623D28622A28322D2861263078664E
:103E3C0066292A62292926307866663B623D28620B
:103E4C002A28322D2828286126307866666666294D
:103E5C002A622926307866666666292929263078F2
:103E6C00666666663B623D28622A28322D612A62AC
:103E7C0025746869732E4456292925746869732E34
:103E8C0044563B72657475726E28623E30293F74DD
:103E9C006869732E44562D623A2D623B7D66756EB1
:103EAC006374696F6E204D6F6E74676F6D65727998
:103EBC002861297B746869732E6D3D613B74686958
:103ECC00732E6D703D612E696E7644696769742836
:103EDC00293B746869732E6D706C3D746869732E20
:103EEC006D70263078376666663B746869732E6D24
:103EFC0070683D746869732E6D703E3E31353B744D
:103F0C006869732E756D3D28313C3C28612E444206
:103F1C002D313529292D313B746869732E6D74321E
:103F2C003D322A612E743B7D66756E6374696F6ECB
:103F3C00206D6F6E74436F6E766572742861297B89
:103F4C0076617220623D6E626928293B612E616246
:103F5C007328292E646C5368696674546F287468CE
:103F6C0069732E6D2E742C62293B622E6469765215
:103F7C00656D546F28746869732E6D2C6E756C6C3E
:103F8C002C62293B696628612E733C302626622EF2
:103F9C00636F6D70617265546F28426967496E7406
:103FAC00656765722E5A45524F293E3029746869EF
:103FBC00732E6D2E737562546F28622C62293B72BE
:103FCC00657475726E20623B7D66756E6374696F85
:103FDC006E206D6F6E745265766572742861297BE4
:103FEC0076617220623D6E626928293B612E636F97
:103FFC007079546F2862293B746869732E726564FA
:10400C007563652862293B72657475726E20623B1C
:10401C007D66756E6374696F6E206D6F6E7452651C
:10402C00647563652861297B7768696C6528612EE6
:10403C00743C3D746869732E6D743229615B612E1A
:10404C00742B2B5D3D303B666F722876617220625B
:10405C003D303B623C746869732E6D2E743B2B2B88
:10406C0062297B76617220633D615B625D263078EC
:10407C00376666663B76617220643D28632A7468F5
:10408C0069732E6D706C2B282828632A74686973E9
:10409C002E6D70682B28615B625D3E3E3135292A9E
:1040AC00746869732E6D706C2926746869732E752B
:1040BC006D293C3C3135292926612E444D3B633D0D
:1040CC00622B746869732E6D2E743B615B635D2B80
:1040DC003D746869732E6D2E616D28302C642C61D3
:1040EC002C622C302C746869732E6D2E74293B77DE
:1040FC0068696C6528615B635D3E3D612E445629A1
:10410C007B615B635D2D3D612E44563B615B2B2BCC
:10411C00635D2B2B3B7D7D612E636C616D7028295B
:10412C003B612E64725368696674546F28746869B5
:10413C00732E6D2E742C61293B696628612E636F7A
:10414C006D70617265546F28746869732E6D293EA9
:10415C003D3029612E737562546F28746869732E13
:10416C006D2C61293B7D66756E6374696F6E206D75
:10417C006F6E74537172546F28612C62297B612E9F
:10418C00737175617265546F2862293B7468697329
:10419C002E7265647563652862293B7D66756E6356
:1041AC0074696F6E206D6F6E744D756C546F2861F1
:1041BC002C622C63297B612E6D756C7469706C7923
:1041CC00546F28622C63293B746869732E72656482
:1041DC007563652863293B7D4D6F6E74676F6D65E4
:1041EC0072792E70726F746F747970652E636F6E46
:1041FC00766572743D6D6F6E74436F6E7665727416
:10420C003B4D6F6E74676F6D6572792E70726F7443
:10421C006F747970652E7265766572743D6D6F6E14
:10422C00745265766572743B4D6F6E74676F6D6515
:10423C0072792E70726F746F747970652E726564FA
:10424C007563653D6D6F6E745265647563653B4D4A
:10425C006F6E74676F6D6572792E70726F746F7498
:10426C007970652E6D756C546F3D6D6F6E744D75F8
:10427C006C546F3B4D6F6E74676F6D6572792E70F9
:10428C00726F746F747970652E737172546F3D6DAB
:10429C006F6E74537172546F3B66756E6374696F95
:1042AC006E20626E7049734576656E28297B726547
:1042BC007475726E2828746869732E743E30293FA9
:1042CC0028746869735B305D2631293A74686973A8
:1042DC002E73293D3D303B7D66756E6374696F6E40
:1042EC0020626E7045787028612C62297B69662883
:1042FC00613E307866666666666666667C7C613CA6
:10430C00312972657475726E20426967496E7465E5
:10431C006765722E4F4E453B76617220633D6E622F
:10432C006928292C643D6E626928292C653D622E12
:10433C00636F6E766572742874686973292C663D98
:10434C006E626974732861292D313B652E636F7021
:10435C0079546F2863293B7768696C65282D2D6625
:10436C003E3D30297B622E737172546F28632C642E
:10437C00293B69662828612628313C3C6629293E60
:10438C003029622E6D756C546F28642C652C632952
:10439C003B656C73657B76617220673D633B633D67
:1043AC00643B643D673B7D7D72657475726E206203
:1043BC002E7265766572742863293B7D66756E6313
:1043CC0074696F6E20626E4D6F64506F77496E74B6
:1043DC0028612C62297B76617220633B69662861B7
:1043EC003C3235367C7C622E69734576656E2829A5
:1043FC0029633D6E657720436C6173736963286232
:10440C00293B656C736520633D6E6577204D6F6E3F
:10441C0074676F6D6572792862293B726574757269
:10442C006E20746869732E65787028612C63293B43
:10443C007D426967496E74656765722E70726F7420
:10444C006F747970652E636F7079546F3D626E7006
:10445C00436F7079546F3B426967496E7465676549
:10446C00722E70726F746F747970652E66726F6DC8
:10447C00496E743D626E7046726F6D496E743B424C
:10448C006967496E74656765722E70726F746F74AC
:10449C007970652E66726F6D537472696E673D62CA
:1044AC006E7046726F6D537472696E673B426967CA
:1044BC00496E74656765722E70726F746F74797063
:1044CC00652E636C616D703D626E70436C616D70D6
:1044DC003B426967496E74656765722E70726F74C2
:1044EC006F747970652E646C5368696674546F3D93
:1044FC00626E70444C5368696674546F3B426967D2
:10450C00496E74656765722E70726F746F74797012
:10451C00652E64725368696674546F3D626E7044A4
:10452C00525368696674546F3B426967496E74658F
:10453C006765722E70726F746F747970652E6C5320
:10454C0068696674546F3D626E704C53686966742A
:10455C00546F3B426967496E74656765722E707261
:10456C006F746F747970652E725368696674546FCA
:10457C003D626E70525368696674546F3B42696752
:10458C00496E74656765722E70726F746F74797092
:10459C00652E737562546F3D626E70537562546F05
:1045AC003B426967496E74656765722E70726F74F1
:1045BC006F747970652E6D756C7469706C79546F4D
:1045CC003D626E704D756C7469706C79546F3B42C2
:1045DC006967496E74656765722E70726F746F745B
:1045EC007970652E737175617265546F3D626E7072
:1045FC00537175617265546F3B426967496E74659E
:10460C006765722E70726F746F747970652E646941
:10461C007652656D546F3D626E7044697652656D6D
:10462C00546F3B426967496E74656765722E707290
:10463C006F746F747970652E696E764469676974EE
:10464C003D626E70496E7644696769743B42696776
:10465C00496E74656765722E70726F746F747970C1
:10466C00652E69734576656E3D626E70497345764D
:10467C00656E3B426967496E74656765722E707230
:10468C006F746F747970652E6578703D626E7045CD
:10469C0078703B426967496E74656765722E7072FB
:1046AC006F746F747970652E746F537472696E6762
:1046BC003D626E546F537472696E673B4269674911
:1046CC006E74656765722E70726F746F7479706535
:1046DC002E6E65676174653D626E4E6567617465CB
:1046EC003B426967496E74656765722E70726F74B0
:1046FC006F747970652E6162733D626E4162733BBB
:10470C00426967496E74656765722E70726F746F5B
:10471C00747970652E636F6D70617265546F3D6254
:10472C006E436F6D70617265546F3B426967496E81
:10473C0074656765722E70726F746F747970652E04
:10474C006269744C656E6774683D626E4269744C44
:10475C00656E6774683B426967496E74656765721C
:10476C002E70726F746F747970652E6D6F643D620C
:10477C006E4D6F643B426967496E74656765722E56
:10478C0070726F746F747970652E6D6F64506F7783
:10479C00496E743D626E4D6F64506F77496E743B19
:1047AC00426967496E74656765722E5A45524F3D72
:1047BC006E62762830293B426967496E746567657D
:1047CC00722E4F4E453D6E62762831293B003C21BE
:1047DC00444F43545950452068746D6C3E3C68748A
:1047EC006D6C3E3C686561643E3C6D657461206E29
:1047FC00616D653D2776696577706F7274272063EC
:10480C006F6E74656E743D2777696474683D64657A
:10481C00766963652D77696474682C20696E697498
:10482C0069616C2D7363616C653D31273E3C746925
:10483C00746C653E536574757020796F7572206465
:10484C0065766963653C2F7469746C653E3C6C6974
:10485C006E6B2072656C3D277374796C657368653B
:10486C0065742720747970653D27746578742F639F
:10487C0073732720687265663D277374796C652E97
:10488C00637373273E3C2F686561643E3C626F64C2
:10489C00793E3C68313E436F6E6E656374206D6586
:1048AC0020746F20796F75722057694669213C2FEF
:1048BC0068313E3C68333E4D7920646576696365AA
:1048CC002049443A3C2F68333E3C696E7075742025
:1048DC00747970653D746578742069643D276465EE
:1048EC00766963652D6964272073697A653D273283
:1048FC0035272076616C75653D27272064697361C7
:10490C00626C65642F3E3C627574746F6E207479B2
:10491C0070653D27627574746F6E2720636C6173CC
:10492C00733D27696E7075742D68656C70657227A0
:10493C002069643D27636F70792D627574746F6E96
:10494C00273E436F70793C2F627574746F6E3E3CDA
:10495C006469762069643D277363616E2D646976A2
:10496C00273E3C68333E5363616E20666F7220763F
:10497C00697369626C652057694669206E65747746
:10498C006F726B733C2F68333E3C627574746F6E40
:10499C002069643D277363616E2D627574746F6E4C
:1049AC002720747970653D27627574746F6E273E8D
:1049BC005363616E3C2F627574746F6E3E3C2F6452
:1049CC0069763E3C6469762069643D276E65747730
:1049DC006F726B732D646976273E3C2F6469763E4B
:1049EC003C6469762069643D27636F6E6E65637401
:1049FC002D64697627207374796C653D276469731F
:104A0C00706C61793A206E6F6E65273E3C703E4447
:104A1C006F6E27742073656520796F7572206E65D3
:104A2C0074776F726B3F204D6F7665206D652063D8
:104A3C006C6F73657220746F20796F757220726F52
:104A4C00757465722C207468656E2072652D7363A5
:104A5C00616E2E3C2F703E3C666F726D2069643D1A
:104A6C0027636F6E6E6563742D666F726D273E3CA7
:104A7C00696E70757420747970653D2770617373FD
:104A8C00776F7264272069643D2770617373776F49
:104A9C007264272073697A653D2732352720706C44
:104AAC00616365686F6C6465723D277061737377C1
:104ABC006F7264272F3E3C627574746F6E2074792C
:104ACC0070653D27627574746F6E2720636C61731B
:104ADC00733D27696E7075742D68656C70657227EF
:104AEC002069643D2773686F772D627574746F6EDF
:104AFC00273E53686F773C2F627574746F6E3E3C23
:104B0C00627574746F6E20747970653D277375626D
:104B1C006D6974272069643D27636F6E6E656374DD
:104B2C002D627574746F6E273E436F6E6E65637481
:104B3C003C2F627574746F6E3E3C2F666F726D3EC7
:104B4C003C2F6469763E3C73637269707420737297
:104B5C00633D277273612D7574696C732F6A736270
:104B6C006E5F312E6A73273E3C2F736372697074CB
:104B7C003E3C736372697074207372633D27727369
:104B8C00612D7574696C732F6A73626E5F322E6A55
:104B9C0073273E3C2F7363726970743E3C7363726F
:104BAC00697074207372633D277273612D7574691B
:104BBC006C732F70726E67342E6A73273E3C2F73A2
:104BCC0063726970743E3C736372697074207372A3
:104BDC00633D277273612D7574696C732F726E67E8
:104BEC002E6A73273E3C2F7363726970743E3C735C
:104BFC006372697074207372633D277273612D75D3
:104C0C0074696C732F7273612E6A73273E3C2F7319
:104C1C0063726970743E3C73637269707420737252
:104C2C00633D277363726970742E6A73273E3C2F41
:104C3C007363726970743E3C2F626F64793E3C2FD3
:104C4C0068746D6C3E0068616E646C696E67207090
:104C5C00616765202573002F696E64657800736544
:104C6C006E64696E67207265646972656374004C6A
:104C7C006F636174696F6E3A202F696E6465782E6C
:104C8C0068746D6C0D0A00746578742F706C6169B2
:104C9C006E006F6E00666C616D65002F696E6465E9
:104CAC00782E68746D6C00746578742F68746D6CF4
:104CBC00002F7273612D7574696C732F7273612E72
:104CCC006A73006170706C69636174696F6E2F6ACE
:104CDC00617661736372697074002F7374796C659B
:104CEC002E63737300746578742F637373002F7263
:104CFC0073612D7574696C732F726E672E6A7300F5
:104D0C002F7273612D7574696C732F6A73626E5F89
:104D1C00322E6A73002F7273612D7574696C732F48
:104D2C006A73626E5F312E6A73002F7363726970DF
:104D3C00742E6A73002F7273612D7574696C732FE6
:104D4C0070726E67342E6A730066756E6374696F69
:104D5C006E20417263666F757228297B7468697363
:104D6C002E693D303B746869732E6A3D303B746824
:104D7C0069732E533D6E65772041727261792829D3
:104D8C003B7D66756E6374696F6E20415243346966
:104D9C006E69742861297B76617220622C632C64A5
:104DAC003B666F7228623D303B623C3235363B2BA2
:104DBC002B6229746869732E535B625D3D623B63A1
:104DCC003D303B666F7228623D303B623C3235367B
:104DDC003B2B2B62297B633D28632B746869732EF4
:104DEC00535B625D2B615B6225612E6C656E677433
:104DFC00685D29263235353B643D746869732E53E2
:104E0C005B625D3B746869732E535B625D3D7468D5
:104E1C0069732E535B635D3B746869732E535B63DC
:104E2C005D3D643B7D746869732E693D303B7468ED
:104E3C0069732E6A3D303B7D66756E6374696F6E67
:104E4C0020415243346E65787428297B7661722038
:104E5C00613B746869732E693D28746869732E69A7
:104E6C002B3129263235353B746869732E6A3D28FF
:104E7C00746869732E6A2B746869732E535B74683B
:104E8C0069732E695D29263235353B613D7468693D
:104E9C00732E535B746869732E695D3B7468697318
:104EAC002E535B746869732E695D3D746869732E4B
:104EBC00535B746869732E6A5D3B746869732E5317
:104ECC005B746869732E6A5D3D613B7265747572C3
:104EDC006E20746869732E535B28612B7468697338
:104EEC002E535B746869732E695D29263235355DE6
:104EFC003B7D417263666F75722E70726F746F7446
:104F0C007970652E696E69743D41524334696E69DE
:104F1C00743B417263666F75722E70726F746F742E
:104F2C007970652E6E6578743D415243346E6578A8
:104F3C00743B66756E6374696F6E2070726E675F1A
:104F4C006E6577737461746528297B7265747572EC
:104F5C006E206E657720417263666F757228293BEF
:104F6C007D76617220726E675F7073697A653D320F
:104F7C0035363B0066756E6374696F6E20706172B6
:104F8C007365426967496E7428612C62297B72656E
:104F9C007475726E206E657720426967496E746510
:104FAC0067657228612C62293B7D66756E63746936
:104FBC006F6E206C696E6562726B28612C62297B46
:104FCC0076617220633D27273B76617220643D3009
:104FDC003B7768696C6528642B623C612E6C656E4E
:104FEC00677468297B632B3D612E737562737472D1
:104FFC00696E6728642C642B62292B275C6E273B17
:10500C00642B3D623B7D72657475726E20632B61FF
:10501C002E737562737472696E6728642C612E6CC2
:10502C00656E677468293B7D66756E6374696F6E17
:10503C002062797465324865782861297B69662815
:10504C00613C307831302972657475726E2027306E
:10505C00272B612E746F537472696E672831362951
:10506C003B656C73652072657475726E20612E746D
:10507C006F537472696E67283136293B7D66756E85
:10508C006374696F6E20706B637331706164322866
:10509C00612C62297B696628623C612E6C656E67A7
:1050AC0074682B3131297B616C65727428274D65CE
:1050BC00737361676520746F6F206C6F6E67206609
:1050CC006F722052534127293B72657475726E20A2
:1050DC006E756C6C3B7D76617220633D6E657720DE
:1050EC00417272617928293B76617220643D612E90
:1050FC006C656E6774682D313B7768696C652864E4
:10510C003E3D302626623E30297B76617220653D1D
:10511C00612E63686172436F6465417428642D2D40
:10512C00293B696628653C31323829635B2D2D6239
:10513C005D3D653B656C73652069662828653E316D
:10514C00323729262628653C3230343829297B63AE
:10515C005B2D2D625D3D2865263633297C31323836
:10516C003B635B2D2D625D3D28653E3E36297C31CF
:10517C0039323B7D656C73657B635B2D2D625D3DC8
:10518C002865263633297C3132383B635B2D2D6202
:10519C005D3D2828653E3E3629263633297C313242
:1051AC00383B635B2D2D625D3D28653E3E313229D7
:1051BC007C3232343B7D7D635B2D2D625D3D303B1B
:1051CC0076617220663D6E657720536563757265F6
:1051DC0052616E646F6D28293B76617220673D6E5B
:1051EC00657720417272617928293B7768696C6513
:1051FC0028623E32297B675B305D3D303B776869C6
:10520C006C6528675B305D3D3D3029662E6E657898
:10521C007442797465732867293B635B2D2D625D3D
:10522C003D675B305D3B7D635B2D2D625D3D323BAD
:10523C00635B2D2D625D3D303B72657475726E2023
:10524C006E657720426967496E746567657228637D
:10525C00293B7D66756E6374696F6E205253414BAA
:10526C00657928297B746869732E6E3D6E756C6C3C
:10527C003B746869732E653D303B746869732E64AA
:10528C003D6E756C6C3B746869732E703D6E756CFD
:10529C006C3B746869732E713D6E756C6C3B7468F5
:1052AC0069732E646D70313D6E756C6C3B746869FE
:1052BC00732E646D71313D6E756C6C3B74686973E3
:1052CC002E636F6566663D6E756C6C3B7D66756EA8
:1052DC006374696F6E205253415365745075626CE0
:1052EC00696328612C62297B69662861213D6E7592
:1052FC006C6C262662213D6E756C6C2626612E6CBC
:10530C00656E6774683E302626622E6C656E677417
:10531C00683E30297B746869732E6E3D70617273C0
:10532C0065426967496E7428612C3136293B746873
:10533C0069732E653D7061727365496E7428622CB9
:10534C003136293B7D656C736520616C6572742800
:10535C0027496E76616C69642052534120707562E6
:10536C006C6963206B657927293B7D66756E637468
:10537C00696F6E20525341446F5075626C6963289B
:10538C0061297B72657475726E20612E6D6F64502D
:10539C006F77496E7428746869732E652C7468690C
:1053AC00732E6E293B7D66756E6374696F6E205229
:1053BC005341456E63727970742861297B766172F2
:1053CC0020623D706B6373317061643228612C28EC
:1053DC00746869732E6E2E6269744C656E6774689E
:1053EC0028292B37293E3E33293B696628623D3DEF
:1053FC006E756C6C2972657475726E206E756C6C42
:10540C003B76617220633D746869732E646F5075CE
:10541C00626C69632862293B696628633D3D6E7541
:10542C006C6C2972657475726E206E756C6C3B7643
:10543C00617220643D632E746F537472696E6728B9
:10544C003136293B69662828642E6C656E67746852
:10545C002631293D3D302972657475726E20643B8E
:10546C00656C73652072657475726E202730272BFE
:10547C00643B7D5253414B65792E70726F746F741F
:10548C007970652E646F5075626C69633D5253413F
:10549C00446F5075626C69633B5253414B65792E76
:1054AC0070726F746F747970652E73657450756259
:1054BC006C69633D5253415365745075626C6963FA
:1054CC003B5253414B65792E70726F746F747970C7
:1054DC00652E656E63727970743D525341456E63EF
:1054EC00727970743B007661722064626974733BEC
:1054FC007661722063616E6172793D3078646561AA
:10550C006462656566636166653B766172206A5F9D
:10551C006C6D3D282863616E617279263078666601
:10552C0066666666293D3D30786566636166652909
:10553C003B66756E6374696F6E20426967496E7461
:10554C006567657228612C622C63297B696628610A
:10555C00213D6E756C6C29696628276E756D6265C8
:10556C0072273D3D747970656F6620612974686996
:10557C00732E66726F6D4E756D62657228612C624A
:10558C002C63293B656C736520696628623D3D6E12
:10559C00756C6C262627737472696E6727213D74AF
:1055AC007970656F66206129746869732E66726FF5
:1055BC006D537472696E6728612C323536293B65E0
:1055CC006C736520746869732E66726F6D53747298
:1055DC00696E6728612C62293B7D66756E63746900
:1055EC006F6E206E626928297B72657475726E20ED
:1055FC006E657720426967496E7465676572286EBF
:10560C00756C6C293B7D66756E6374696F6E206179
:10561C006D3128612C622C632C642C652C66297BE3
:10562C007768696C65282D2D663E3D30297B766147
:10563C007220673D622A746869735B612B2B5D2B4A
:10564C00635B645D2B653B653D4D6174682E666CD8
:10565C006F6F7228672F307834303030303030290B
:10566C003B635B642B2B5D3D672630783366666647
:10567C006666663B7D72657475726E20653B7D66F1
:10568C00756E6374696F6E20616D3228612C622CAB
:10569C00632C642C652C66297B76617220673D62D5
:1056AC00263078376666662C683D623E3E31353B67
:1056BC007768696C65282D2D663E3D30297B7661B7
:1056CC007220693D746869735B615D26307837665A
:1056DC0066663B766172206A3D746869735B612B08
:1056EC002B5D3E3E31353B766172206B3D682A69FD
:1056FC002B6A2A673B693D672A692B28286B263061
:10570C007837666666293C3C3135292B635B645DD2
:10571C002B28652630783366666666666666293B96
:10572C00653D28693E3E3E3330292B286B3E3E3E7C
:10573C003135292B682A6A2B28653E3E3E333029A9
:10574C003B635B642B2B5D3D692630783366666664
:10575C00666666663B7D72657475726E20653B7D10
:10576C0066756E6374696F6E20616D3328612C628F
:10577C002C632C642C652C66297B76617220673D2A
:10578C0062263078336666662C683D623E3E313464
:10579C003B7768696C65282D2D663E3D30297B76FC
:1057AC00617220693D746869735B615D2630783382
:1057BC006666663B766172206A3D746869735B61EC
:1057CC002B2B5D3E3E31343B766172206B3D682A5B
:1057DC00692B6A2A673B693D672A692B28286B2647
:1057EC00307833666666293C3C3134292B635B6424
:1057FC005D2B653B653D28693E3E3238292B286B75
:10580C003E3E3134292B682A6A3B635B642B2B5D4B
:10581C003D69263078666666666666663B7D7265AF
:10582C007475726E20653B7D6966286A5F6C6D26A7
:10583C0026286E6176696761746F722E6170704E86
:10584C00616D653D3D274D6963726F736F667420A2
:10585C00496E7465726E6574204578706C6F7265F4
:10586C00722729297B426967496E74656765722EB8
:10587C0070726F746F747970652E616D3D616D32ED
:10588C003B64626974733D33303B7D656C7365209A
:10589C006966286A5F6C6D2626286E617669676179
:1058AC00746F722E6170704E616D65213D274E656F
:1058BC007473636170652729297B426967496E742B
:1058CC00656765722E70726F746F747970652E6176
:1058DC006D3D616D313B64626974733D32363B7D65
:1058EC00656C73657B426967496E74656765722E7A
:1058FC0070726F746F747970652E616D3D616D336C
:10590C003B64626974733D32383B7D426967496E12
:10591C0074656765722E70726F746F747970652E12
:10592C0044423D64626974733B426967496E7465B5
:10593C006765722E70726F746F747970652E444D3A
:10594C003D2828313C3C6462697473292D31293B14
:10595C00426967496E74656765722E70726F746FF9
:10596C00747970652E44563D28313C3C64626974F0
:10597C0073293B7661722042495F46503D35323B7C
:10598C00426967496E74656765722E70726F746FC9
:10599C00747970652E46563D4D6174682E706F7724
:1059AC0028322C42495F4650293B426967496E7444
:1059BC00656765722E70726F746F747970652E46A0
:1059CC00313D42495F46502D64626974733B4269B4
:1059DC0067496E74656765722E70726F746F747937
:1059EC0070652E46323D322A64626974732D4249C9
:1059FC005F46503B7661722042495F524D3D2730E5
:105A0C0031323334353637383961626364656667F1
:105A1C0068696A6B6C6D6E6F707172737475767782
:105A2C0078797A273B7661722042495F52433D6E0A
:105A3C00657720417272617928293B7661722072F8
:105A4C00722C76763B72723D2730272E636861721A
:105A5C00436F646541742830293B666F72287676F3
:105A6C003D303B76763C3D393B2B2B7676294249B3
:105A7C005F52435B72722B2B5D3D76763B72723DAF
:105A8C002761272E63686172436F64654174283007
:105A9C00293B666F722876763D31303B76763C3307
:105AAC00363B2B2B76762942495F52435B72722B25
:105ABC002B5D3D76763B72723D2741272E636861E4
:105ACC0072436F646541742830293B666F72287687
